:020000040800F2
:10000000600600206D0100087501000877010008F6
:10001000790100087B0100087D0100080000000054
:100020000000000000000000000000007F01000848
:10003000810100080000000083010008850100081C
:100040008701000887010008870100088701000870
:100050008701000887010008870100088701000860
:10006000870100088701000887010008890200084D
:10007000A5020008C1020008DD020008F90200081C
:1000800015030008310300088701000887010008F4
:100090008701000887010008870100088701000820
:1000A0008701000887010008870100088701000810
:1000B0008701000887010008870100088701000800
:1000C00087010008870100088701000887010008F0
:1000D00087010008A50600088701000887010008BD
:1000E00087010008870100088701000800F002F876
:1000F00000F02CF80AA090E8000C82448344AAF196
:100100000107DA4501D100F021F8AFF2090EBAE893
:100110000F0013F0010F18BFFB1A43F0010318473B
:10012000FC0500000C06000000230024002500262A
:10013000103A28BF78C1FBD8520728BF30C148BF4A
:100140000B6070471FB51FBD10B510BD00F031F832
:100150001146FFF7F7FF00F0BFFA00F04FF803B4C5
:10016000FFF7F2FF03BC00F057F800000948804792
:1001700009480047FEE7FEE7FEE7FEE7FEE7FEE789
:10018000FEE7FEE7FEE7FEE704480549054A064BA1
:10019000704700004D060008ED00000860000020D8
:1001A0006006002060020020600200207047704757
:1001B0007047754600F02CF8AE4605006946534678
:1001C00020F00700854618B020B5FFF7DDFFBDE839
:1001D00020404FF000064FF000074FF000084FF0AE
:1001E000000BAC46ACE8C009ACE8C009ACE8C009FB
:1001F000ACE8C00921F007018D46704710B50446F0
:10020000AFF300802046BDE81040FFF7A8BF000014
:10021000004870470000002001491820ABBEFEE7EF
:10022000260002007047000041F21800C4F20200EC
:10023000016841F48041016043F60C00C4F2010002
:10024000002101808180018141F64C5120F8041C7D
:10025000018821F480510180818821F440518180FE
:10026000018821F480610180018841F0080101804A
:10027000018921F440710181018841F4005101801C
:10028000704700007047000080B50021C4F20201F1
:10029000086800F00F004860FFF7F4FF80BD000021
:1002A0007047000080B50021C4F202010868C0F365
:1002B000031002014A60FFF7F3FF80BD70470000A2
:1002C00080B50021C4F202010868C0F303200202D5
:1002D0004A60FFF7F3FF80BD7047000080B5002142
:1002E000C4F202010868C0F3033002034A60FFF75A
:1002F000F3FF80BD7047000080B50021C4F2020109
:100300000868C0F3034002044A60FFF7F3FF80BDB2
:100310007047000080B50021C4F202010868C0F3F4
:10032000035002054A60FFF7F3FF80BD70470000ED
:1003300080B50021C4F202010868C0F30360020620
:100340004A60FFF7F3FF80BD4EF2100141F63F1205
:10035000CEF20001C0F201024A60002205238A6049
:100360000B6028B10B68DB03FCD501380304F9D11D
:100370000A6070472DE9F041CA7802F00F0CD306ED
:1003800044BF8B784CEA030C09880B0621D0056822
:1003900000234FF001084FF00F0E002608E000BFC9
:1003A000282A08BF47610136082E03F104030FD045
:1003B00008FA06F70F42F6D00EFA03F425EA040411
:1003C0000CFA03F5482A45EA0405E9D10761EAE792
:1003D0000560B1F5807F38BFBDE8F0814468002337
:1003E0004FF4807E4FF00F08002607E0282A08BF50
:1003F00047610136082E03F1040310D00EFA06F708
:1004000007EA0105BD42F4D108FA03F5AC430CFA42
:1004100003F5482A44EA0504E8D10761E9E74460A6
:10042000BDE8F081B0B50422C4F20102134602F126
:10043000180E002848BF73461B6800F44014C0F330
:100440000345B4F5401F1FFA80FC06D1146823F061
:10045000706324F07064146010E0C40209D46FF07B
:100460000F0404EA50440CFA04F4A34343F070630D
:1004700004E00324AC40A34343F070636FF00F0427
:1004800004EA504400290CFA04F518BF2B43002855
:1004900048BF72461360B0BDF0B581B0154641F259
:1004A0000002C4F201021C4690420E4626D040F6DD
:1004B0000041C4F2010188422FD040F60001C4F28D
:1004C0000101884250D10420012100F04FF8B6F517
:1004D000004F0AD10120012100F048F840F200202D
:1004E000C0F230000121FFF79DFF40F600008DF8BB
:1004F0000350ADF80060C4F2010030E0102001218B
:1005000000F034F840F60000C4F2010000F500608D
:100510008DF80350ADF8006021E040F60007102E82
:10052000C4F2010701D0082E0FD10820012100F0EC
:100530001DF80120012100F019F840F20020C0F25E
:1005400030000121FFF76EFF03E00820012100F0D9
:100550000DF88DF80350ADF8006007F5806069462E
:100560008DF80240FFF706FF01B0F0BD002941F20F
:100570001801C4F202010A680CBF22EA000010430D
:100580000860704780B500F001F880BD82B041F28C
:1005900004000021C4F202000191009150F8041CF3
:1005A00041F4803140F8041C50F8041C01F400317F
:1005B0000091019901310191009919B90199B1F5A1
:1005C000A06FF1D150F8041C890354BF0021012110
:1005D00000910099012936D142F20001C4F20201D2
:1005E0000A6842F010020A600A6822F007020A60F4
:1005F0000A6842F002020A60016801600168016055
:10060000016841F480610160016821F47C1101609E
:10061000016841F4E811016050F8041C41F0807158
:1006200040F8041C50F8041C8901FBD5016821F036
:1006300003010160016841F002010160016801F0FD
:100640000C010829FAD102B07047000080B541F2D0
:100650000000C4F202000168002241F001010160C3
:100660004168CFF6FF021140416001684FF6FF720A
:10067000CFF6F66211400160016821F4802101602B
:10068000416821F4FE0141604FF41F018160FFF7D2
:1006900079FF4EF60850CEF200004FF00061016085
:1006A00080BD00007047000043F60001C4F2010164
:1006B0000A881206FCD588807047000010B50178C2
:1006C000002908BF10BD441EC8B2FFF7EDFFA17896
:1006D00001340029F8D110BD40F60004C4F2010431
:1006E00020464FF4007118220323FFF7D5FE204661
:1006F0004FF4806104220323FFF7CEFEFFF794FD41
:1007000004A400BF2046FFF7D9FF4FF47A70FFF72B
:100710001BFEF7E74E6F726D616C0A002C07000834
:0C07200000000020600600002801000816
:04000005080000ED02
:00000001FF
