:020000040800F2
:10000000B8060020750100087D0100087F01000886
:10001000810100088301000885010008000000003C
:100020000000000000000000000000008701000840
:1000300089010008000000008B0100088D01000804
:100040008F0100088F0100088F0100088F01000850
:100050008F0100088F0100088F0100088F01000840
:100060008F0100088F0100088F010008FD050008BE
:100070001906000835060008510600086D0600083C
:1000800089060008A5060008610400088F01000821
:100090008F0100088F0100088F0100088F01000800
:1000A0008F0100088F0100088F0100088F010008F0
:1000B0008F0100088F0100088F0100088F010008E0
:1000C0008F0100088F0100088F0100088F010008D0
:1000D0008F0100088F0100088F0100088F010008C0
:1000E0008F0100088F0100088F01000800F002F85E
:1000F00000F031F80AA090E8000C82448344AAF191
:100100000107DA4501D100F026F8AFF2090EBAE88E
:100110000F0013F0010F18BFFB1A43F0010318473B
:100120000C0C00001C0C00000023002400250026FD
:10013000103A28BF78C1FBD8520728BF30C148BF4A
:100140000B607047752900F07580002070471FB55F
:100150001FBD10B510BD00F049F91146FFF7F7FFBC
:1001600000F0BEFD00F067F903B4FFF7F2FF03BC37
:1001700000F06EF90948804709480047FEE7FEE7AE
:10018000FEE7FEE7FEE7FEE7FEE7FEE7FEE7FEE747
:1001900004480549054A064B70470000210B00083A
:1001A000ED000008B8000020B8060020B8020020CA
:1001B000B80200200FB4044910B503AA029800F059
:1001C000E7F810BC5DF814FB600000202DE9F04159
:1001D0000E460446002020622046E168884730B37E
:1001E000252805D0D4E901219047206A401CF2E778
:1001F000E168204600278847050018D0A5F1410096
:10020000192802D820354FF4006732462946204687
:100210002760FFF797FF40B1012804D0F61D26F0B4
:1002200007060836D8E7361DD6E72846DAE7206AFB
:10023000BDE8F0812DE9F0410646002410687529DB
:10024000314616A510D0AFF30080002802DA4042F4
:1002500013A507E031688A0701D512A502E0490716
:1002600004D511A5012401E0AFF3008000210A228A
:1002700006F1240709E0B0FBF2FCB0FBF2F302FB4D
:100280001C00303078541846491C0028F3D123460E
:100290002A463046BDE8F04100F021B800000000D9
:1002A0002D0000002B0000002000000010B50446C7
:1002B00003E000F00DFD401C09D014F8010B0549C6
:1002C0000028F6D1BDE810400A2000F001BD4FF033
:1002D000FF3010BD600000207047704770472DE967
:1002E000F0470D4699469246044600F124080168FD
:1002F000880604D5E06921F01001216000E00120AA
:10030000A84201DD471B00E00027A1697A1902EB32
:100310000900081AA0612078C00602D42046AFF375
:100320000080002608E0D4E901211AF80600904771
:10033000206A401C761C20624E45F4DB2078C00603
:100340000AD52046AFF3008006E0D4E90121302031
:100350009047206A401C2062381EA7F10107F4DC98
:1003600007E0D4E9012118F805009047206A401CF5
:100370002062281EA5F10105F3DC2046AFF30080C2
:100380002078000602D50220BDE8F0870120FBE7B7
:10039000074B70B50D467B4400F011F80446284623
:1003A00000F020F810B14FF0FF3070BD204670BD56
:1003B0003709000001694A1C02610878704700B5DE
:1003C0008FB0CDE901310021059105497944CDE98E
:1003D000031011466846FFF7F9FE0FB000BD00009C
:1003E000E5FFFFFF007B00F080007047754600F0DE
:1003F0002BF8AE4605006946534620F007008546B7
:1004000018B020B5FFF7C4FEBDE820404FF000064D
:100410004FF000074FF000084FF0000BAC46ACE87F
:10042000C009ACE8C009ACE8C009ACE8C00921F0DB
:1004300007018D46704710B50446AFF30080204693
:10044000BDE81040FFF790BE004870470000002054
:1004500001491820ABBEFEE72600020070470000ED
:1004600010B542F20044C4F201042068C00708BF7E
:1004700010BD04A0FFF71AFF206820F001002060E3
:1004800010BD00BF5761726E696E67212121210086
:1004900010B541F21800C4F20200016842F20844AB
:1004A00041F40071C4F201040160606A20F470003C
:1004B0006062E06A20F01F00E062E06AE06254F8E7
:1004C000040C20F4807044F8040C206840F0020012
:1004D0002060206840F48070206054F8040C40F4E0
:1004E000007044F8040C54F8040C20F01F0044F889
:1004F000040C54F8040C44F8040C54F8040C40F4B4
:10050000000040F0400044F8040C40F6B830E061D0
:100510004FF47A702062206840F0010020600120D2
:1005200000F0E2F8206840F00400206020684007F6
:10053000FCD4206840F00100206010BD41F214009E
:10054000C4F20200016841F0010101600820C4F218
:100550000200016821F00101016042F24C41C4F245
:100560000101816040F2B401C2F20001C1600121C9
:100570004160016841F440510160016841F020018F
:100580000160016841F4A0610160016841F001016E
:100590000160704710B540F60004C4F20104204623
:1005A0004FF400711822032300F044F920464FF461
:1005B00080610422032300F03DF92046012100223E
:1005C000032300F037F904F500604FF400511022C6
:1005D000032300F02FF910BD80B582B04FF4E06026
:1005E00000F0C2F91220C0F20110019001A800F041
:1005F0008BF902B080BD00007047000080B500217B
:10060000C4F20201086800F00F004860FFF7F4FF31
:1006100080BD00007047000080B50021C4F20201D7
:100620000868C0F3031002014A60FFF7F3FF80BDC2
:100630007047000080B50021C4F202010868C0F3D1
:10064000032002024A60FFF7F3FF80BD70470000FD
:1006500080B50021C4F202010868C0F30330020330
:100660004A60FFF7F3FF80BD7047000080B50021AE
:10067000C4F202010868C0F3034002044A60FFF7B5
:10068000F3FF80BD7047000080B50021C4F2020175
:100690000868C0F3035002054A60FFF7F3FF80BD0E
:1006A0007047000080B50021C4F202010868C0F361
:1006B000036002064A60FFF7F3FF80BD4EF21001AF
:1006C00041F63F12CEF20001C0F201024A60002260
:1006D00005238A600B6028B10B68DB03FCD5013869
:1006E0000304F9D10A6070474EF21001CEF2000106
:1006F00047224A60002205238A600B6030B100BFA8
:100700000B68DB03FCD501380304F9D10A6070479C
:100710002DE9F041CA7802F00F0CD30644BF8B7864
:100720004CEA030C09880B0621D0056800234FF022
:1007300001084FF00F0E002608E000BF282A08BF6E
:1007400047610136082E03F104030FD008FA06F7BB
:100750000F42F6D00EFA03F425EA04040CFA03F56E
:10076000482A45EA0405E9D10761EAE70560B1F5E1
:10077000807F38BFBDE8F081446800234FF4807E5D
:100780004FF00F08002607E0282A08BF476101360E
:10079000082E03F1040310D00EFA06F707EA01054C
:1007A000BD42F4D108FA03F5AC430CFA03F5482A2C
:1007B00044EA0504E8D10761E9E74460BDE8F08157
:1007C000B0B50422C4F20102134602F1180E00284B
:1007D00048BF73461B6800F44014C0F30345B4F5EA
:1007E000401F1FFA80FC06D1146823F0706324F0C8
:1007F0007064146010E0C40209D46FF00F0404EABE
:1008000050440CFA04F4A34343F0706304E003245F
:10081000AC40A34343F070636FF00F0404EA50440C
:1008200000290CFA04F518BF2B43002848BF724674
:100830001360B0BDF0B581B0154641F20002C4F2BC
:1008400001021C4690420E4626D040F60041C4F2FA
:10085000010188422FD040F60001C4F20101884214
:1008600050D10420012100F089F8B6F5004F0AD1DB
:100870000120012100F082F840F20020C0F2300097
:100880000121FFF79DFF40F600008DF80350ADF801
:100890000060C4F2010030E01020012100F06EF889
:1008A00040F60000C4F2010000F500608DF803502E
:1008B000ADF8006021E040F60007102EC4F20107F9
:1008C00001D0082E0FD10820012100F057F8012097
:1008D000012100F053F840F20020C0F23000012165
:1008E000FFF76EFF03E00820012100F047F88DF8C4
:1008F0000350ADF8006007F5806069468DF802404E
:10090000FFF706FF01B0F0BD10B5C17800294EF227
:100910000011CEF200011AD04EF60C52CEF20002B7
:100920001268072323EA12220F23C2F1040C23FAD0
:1009300002F24378847890F800E003FA0CF3224046
:100940001A43120101EB0E0383F8002300E080310B
:100950000078012300F01F0203FA02F2C0F34210F4
:1009600041F8202010BD000040F080604EF60C5190
:1009700040F0FD70CEF2000108607047002941F29E
:100980001801C4F202010A680CBF22EA00001043F9
:100990000860704710B541F20404C4F202042268F2
:1009A00002F00C02082A41F20022C0F27A021CD1A5
:1009B0002368D4F800C0C3F3834E5FEACC330EF152
:1009C000020C06D440F60012C0F23D020CFB02F20B
:1009D0000BE023689B0302D40CFB02F205E040F617
:1009E0000012C0F23D020CFB02F20260226840F6E7
:1009F0001C53C2F30312C0F600039A5C0168D14095
:100A000041602268C2F302229A5C21FA02F28260FB
:100A10002268C2F3C2229A5C40F61853D140C160EA
:100A20002268C0F60003C2F381329A5CB1FBF2F196
:100A3000016110BDB0B543F600050446C4F20105DE
:100A40002846802100F0A2F80028F9D02846214647
:100A500000F014F9B0BD000080B500F001F880BDD1
:100A600082B041F204000021C4F202000191009121
:100A700050F8041C41F4803140F8041C50F8041C68
:100A800001F400310091019901310191009919B9E6
:100A90000199B1F5A06FF1D150F8041C890354BF3E
:100AA0000021012100910099012936D142F2000173
:100AB000C4F202010A6842F010020A600A6822F0D9
:100AC00007020A600A6842F002020A6001680160D7
:100AD00001680160016841F480610160016821F4EE
:100AE0007C110160016841F4E811016050F8041CB8
:100AF00041F0807140F8041C50F8041C8901FBD5BA
:100B0000016821F003010160016841F00201016008
:100B1000016801F00C010829FAD102B07047000009
:100B200080B541F20000C4F202000168002241F0E9
:100B3000010101604168CFF6FF0211404160016888
:100B40004FF6FF72CFF6F66211400160016821F4A2
:100B500080210160416821F4FE0141604FF41F01D2
:100B60008160FFF779FF4EF60850CEF200004FF09B
:100B70000061016080BD00008289002942F40053B9
:100B800008BF22F4005383817047000000880840AA
:100B900018BF012070470000C1F3421301F01F0C81
:100BA0001421022B08BF1021012B4FF0010308BFB5
:100BB0000C21002A03FA0CF243580CBF23EA02026C
:100BC0001A4342507047000070B586B00446008A50
:100BD0000D46C98820F4405008432082A0894EF673
:100BE000F3110840A9882A896B89084310431843E8
:100BF000A081A08AA98920F44070084301AEA08298
:100C00003046FFF7C7FE43F6000106F10800C4F2C4
:100C100001018C4208BF06F10C0000681922B4F9EA
:100C20000C1050432A680223002948BF012302FA0E
:100C300003F1B0FBF1F048F21F51C5F2EB11A0FB3C
:100C400001235A096FF0630302FB0300B4F90C306F
:100C50000426002B48BF032600FA06F000F13200FC
:100C6000A0FB01014FF00F0048BF072000EA511020
:100C700040EA0210208106B070BD00006FF35F21D2
:100C80008180704710B584B04FF480400121FFF798
:100C900075FE4FF4165043F60004009000204FF408
:100CA0004021C4F20104ADF80C00CDE90101694610
:100CB0002046FFF789FF204640F225510122FFF729
:100CC0006BFF20460121FFF757FF04B010BD000065
:100CD00010B50446C0B2FFF7ADFE204610BD0000BF
:100CE000FFF7D0FFFFF756FCFFF728FCFFF7D0FB1C
:100CF000FFF772FC40F2B405C2F2000505A400BF84
:100D000029882046FFF756FA4FF4FA70FFF7D6FC11
:100D1000F6E700BF25750A0002040608000000007F
:100D20000102030401020304060708093C0D000840
:0C0D300000000020B806000028010008A8
:04000005080000ED02
:00000001FF
