:020000040800F2
:10000000600600206D0100087501000877010008F6
:10001000790100087B0100087D0100080000000054
:100020000000000000000000000000007F01000848
:10003000810100080000000083010008850100081C
:100040008701000887010008870100088701000870
:100050008701000887010008870100088701000860
:100060008701000887010008870100088701000850
:100070008701000887010008870100088701000840
:100080008701000887010008870100088701000830
:100090008701000887010008870100088701000820
:1000A0008701000887010008870100088701000810
:1000B0008701000887010008870100088701000800
:1000C00087010008870100088701000887010008F0
:1000D00087010008870100088701000887010008E0
:1000E00087010008870100088701000800F002F876
:1000F00000F02CF80AA090E8000C82448344AAF196
:100100000107DA4501D100F021F8AFF2090EBAE893
:100110000F0013F0010F18BFFB1A43F0010318473B
:100120004406000054060000002300240025002699
:10013000103A28BF78C1FBD8520728BF30C148BF4A
:100140000B6070471FB51FBD10B510BD00F050F813
:100150001146FFF7F7FF00F0E7FA00F06EF803B47E
:10016000FFF7F2FF03BC00F075F800000948804774
:1001700009480047FEE7FEE7FEE7FEE7FEE7FEE789
:10018000FEE7FEE7FEE7FEE704480549054A064BA1
:100190007047000089060008ED000008600000209C
:1001A00060060020600200206002002010B5431CA1
:1001B00002E010F8011B71B18107FAD14FF0013252
:1001C00002C88C1A8C4314EAC211F9D0C01A0A066C
:1001D00003D0C01E10BDC01A10BD0A0401D0801E7D
:1001E00010BD0902FCD0401E10BD7047704770471B
:1001F000754600F02BF8AE4605006946534620F0E0
:100200000700854618B020B5FFF7BEFFBDE82040C7
:100210004FF000064FF000074FF000084FF0000BC2
:10022000AC46ACE8C009ACE8C009ACE8C009ACE831
:10023000C00921F007018D46704710B50446AFF3A1
:1002400000802046BDE81040FFF789BF0048704796
:100250000000002001491820ABBEFEE72600020086
:100260007047000041F21400C4F20200016841F03E
:10027000010101606C20C4F20200016821F001015B
:10028000016045F21041C4F200018160016841F44F
:1002900080510160016821F440610160016821F42E
:1002A00040710160016841F080010160016841F026
:1002B000100101607047000010B540F60044C4F220
:1002C0000104204640211C22032300F0DDF82046D3
:1002D00080211C22032300F0D7F810BD41F21C003E
:1002E000C4F20200016841F40011016045F20440CB
:1002F000C4F2000030F8041C21F0010120F8041CB5
:10030000018821F03F010180018841F02401018032
:10031000018B6FF3DF310183B421018325218183B8
:10032000018841F40061018030F8041C41F00101B2
:1003300020F8041C704700004EF2100141F63F12F5
:10034000CEF20001C0F201024A60002205238A6059
:100350000B6028B10B68DB03FCD501380304F9D12D
:100360000A6070472DE9F041CA7802F00F0CD306FD
:1003700044BF8B784CEA030C09880B0621D0056832
:1003800000234FF001084FF00F0E002608E000BFD9
:10039000282A08BF47610136082E03F104030FD055
:1003A00008FA06F70F42F6D00EFA03F425EA040421
:1003B0000CFA03F5482A45EA0405E9D10761EAE7A2
:1003C0000560B1F5807F38BFBDE8F0814468002347
:1003D0004FF4807E4FF00F08002607E0282A08BF60
:1003E00047610136082E03F1040310D00EFA06F718
:1003F00007EA0105BD42F4D108FA03F5AC430CFA53
:1004000003F5482A44EA0504E8D10761E9E74460B6
:10041000BDE8F081B0B50422C4F20102134602F136
:10042000180E002848BF73461B6800F44014C0F340
:100430000345B4F5401F1FFA80FC06D1146823F071
:10044000706324F07064146010E0C40209D46FF08B
:100450000F0404EA50440CFA04F4A34343F070631D
:1004600004E00324AC40A34343F070636FF00F0437
:1004700004EA504400290CFA04F518BF2B43002865
:1004800048BF72461360B0BDF0B581B0154641F269
:100490000002C4F201021C4690420E4626D040F6ED
:1004A0000041C4F2010188422FD040F60001C4F29D
:1004B0000101884250D10420012100F075F8B6F501
:1004C000004F0AD10120012100F06EF840F2002017
:1004D000C0F230000121FFF79DFF40F600008DF8CB
:1004E0000350ADF80060C4F2010030E0102001219B
:1004F00000F05AF840F60000C4F2010000F5006078
:100500008DF80350ADF8006021E040F60007102E92
:10051000C4F2010701D0082E0FD10820012100F0FC
:1005200043F80120012100F03FF840F20020C0F222
:1005300030000121FFF76EFF03E00820012100F0E9
:1005400033F88DF80350ADF8006007F58060694618
:100550008DF80240FFF706FF01B0F0BD45F21441EF
:10056000C4F2000121F8040C08888007FCD5088833
:100570008888704745F20040C4F20000018841F4C9
:1005800080710180818AC907FCD0808A7047000091
:1005900045F20040C4F20000818A4907FCD5018879
:1005A00041F4007101807047002941F21801C4F242
:1005B00002010A680CBF22EA00001043086070477D
:1005C00080B500F001F880BD82B041F20400002146
:1005D000C4F202000191009150F8041C41F48031F2
:1005E00040F8041C50F8041C01F4003100910199FA
:1005F00001310191009919B90199B1F5A06FF1D1BB
:1006000050F8041C890354BF002101210091009976
:10061000012936D142F20001C4F202010A6842F017
:1006200010020A600A6822F007020A600A6842F0B3
:1006300002020A600168016001680160016841F41A
:1006400080610160016821F47C110160016841F45E
:10065000E811016050F8041C41F0807140F8041C5E
:1006600050F8041C8901FBD5016821F003010160E9
:10067000016841F002010160016801F00C010829E4
:10068000FAD102B07047000080B541F20000C4F218
:1006900002000168002241F0010101604168CFF6CB
:1006A000FF021140416001684FF6FF72CFF6F6621B
:1006B00011400160016821F480210160416821F44A
:1006C000FE0141604FF41F018160FFF779FF4EF694
:1006D0000850CEF200004FF00061016080BD0000C4
:1006E000B0B56C250446C4F20205FFF75FFD6860F3
:1006F000EC60286840F00100286000BF55F86C0CE1
:100700008002FBD555F8680C40F4001045F8680CE1
:1007100045F21440C4F2000001884907FCD528685E
:1007200020F001002860B0BDFFF7C6FDFFF7D6FD41
:10073000FFF798FD08A400BFFFF71CFF4E20FFF74E
:100740000DFF2046FFF7CCFFFFF722FF4FF4FA60C2
:10075000FFF7F2FDF0E700BF55736520444D410AF5
:100760000000000074070008000000206006000080
:040770002801000854
:04000005080000ED02
:00000001FF
